:020000040000FA
:10000000F52BDF0000308A005F0882070628612A8E
:06001000AD295129092968
:1001B800023401340334043483168501870107307F
:1001C80083129900850187018316871683122C08EC
:1001D800A6002B08A5002A08A4002908A300A70147
:1001E800A8018312871AF928FA2800290130A707DD
:1001F8000318A80A0030A80727080339233E8400FB
:10020800831300080120F528002883120714871497
:1002180007158715071605144130A100EE30A00018
:10022800A00B1429A10B14290000831205108514B2
:100238004130A100EE30A000A00B2029A10B2029FD
:1002480000008312851005154130A100EE30A00092
:10025800A00B2C29A10B2C290000831205110516CF
:100268004130A100EE30A000A00B3829A10B38299D
:1002780000008312051285164130A100EE30A0005F
:10028800A00B4429A10B44290000831285120710F2
:1002980087100711871107120800831207148714A3
:1002A80007158715071605140330A2008A30A10028
:1002B8005530A000A00B5E29A10B5E29A20B5E2978
:1002C80065298312051085140330A2008A30A10025
:1002D8005530A000A00B6E29A10B6E29A20B6E2928
:1002E80075298312851005150330A2008A30A100F4
:1002F8005530A000A00B7E29A10B7E29A20B7E29D8
:1003080085298312051105160330A2008A30A10041
:100318005530A000A00B8E29A10B8E29A20B8E2987
:1003280095298312051285160330A2008A30A10090
:100338005530A000A00B9E29A10B9E29A20B9E2937
:10034800A529831285120710871007118711071234
:1003580008008312051407140330A2008A30A10094
:100368005530A000A00BB629A10BB629A20BB629BF
:10037800BD29831205100710851487140330A200C5
:100388008A30A1005530A000A00BC829A10BC829AC
:10039800A20BC829CF2983128510871005150715C8
:1003A8000330A2008A30A1005530A000A00BDA2942
:1003B800A10BDA29A20BDA29E12983120511071109
:1003C800051687150330A2008A30A1005530A00019
:1003D800A00BEC29A10BEC29A20BEC29F329831221
:1003E80005128711851607160330A2008A30A1006E
:1003F8005530A000A00BFE29A10BFE29A20BFE2957
:10040800052A8312851205140330A2008A30A10040
:100418005530A000A00B0E2AA10B0E2AA20B0E2A03
:10042800152A831205100712851487150330A200B8
:100438008A30A1005530A000A00B202AA10B202A49
:10044800A20B202A272A8312851087110515071564
:100458000330A2008A30A1005530A000A00B322A38
:10046800A10B322AA20B322A392A8312051107114D
:10047800051687140330A2008A30A1005530A00069
:10048800A00B442AA10B442AA20B442A4B2A83120C
:1004980005128710851607140330A2008A30A100C0
:1004A8005530A000A00B562AA10B562AA20B562A9B
:1004B8005D2A831285120710080083120514071499
:1004C8000230A2004530A100A930A000A00B6A2A82
:1004D800A10B6A2AA20B6A2A712A831207108714B1
:1004E8000230A2004530A100A930A000A00B7A2A52
:1004F800A10B7A2AA20B7A2A812A83128710071560
:100508000230A2004530A100A930A000A00B8A2A21
:10051800A10B8A2AA20B8A2A912A8312071187150E
:100528000230A2004530A100A930A000A00B9A2AF1
:10053800A10B9A2AA20B9A2AA12A831287110716BD
:100548000230A2004530A100A930A000A00BAA2AC1
:10055800A10BAA2AA20BAA2AB12A83120510851474
:100568000230A2004530A100A930A000A00BBA2A91
:10057800A10BBA2AA20BBA2AC12A83128510051523
:100588000230A2004530A100A930A000A00BCA2A61
:10059800A10BCA2AA20BCA2AD12A83120511051651
:1005A8000230A2004530A100A930A000A00BDA2A31
:1005B800A10BDA2AA20BDA2AE12A83120512851680
:1005C8000230A2004530A100A930A000A00BEA2A01
:1005D800A10BEA2AA20BEA2AF12A8312071287152D
:1005E8000230A2004530A100A930A000A00BFA2AD1
:1005F800A10BFA2AA20BFA2A012B831287110715DD
:100608000230A2004530A100A930A000A00B0A2B9F
:10061800A10B0A2BA20B0A2B112B8312071187148B
:100628000230A2004530A100A930A000A00B1A2B6F
:10063800A10B1A2BA20B1A2B212B8312871007143C
:100648000230A2004530A100A930A000A00B2A2B3F
:10065800A10B2A2BA20B2A2B312B831285120516EC
:100668000230A2004530A100A930A000A00B3A2B0F
:10067800A10B3A2BA20B3A2B412B8312051205151D
:100688000230A2004530A100A930A000A00B4A2BDF
:10069800A10B4A2BA20B4A2B512B8312051185144F
:1006A8000230A2004530A100A930A000A00B5A2BAF
:1006B800A10B5A2BA20B5A2B612B831207108714FC
:1006C8000230A2004530A100A930A000A00B6A2B7F
:1006D800A10B6A2BA20B6A2B712B831287100715AB
:1006E8000230A2004530A100A930A000A00B7A2B4F
:1006F800A10B7A2BA20B7A2B812B8312071187155A
:100708000230A2004530A100A930A000A00B8A2B1E
:10071800A10B8A2BA20B8A2B912B8312851005150E
:100728000230A2004530A100A930A000A00B9A2BEE
:10073800A10B9A2BA20B9A2BA12B8312051105163C
:100748000230A2004530A100A930A000A00BAA2BBE
:10075800A10BAA2BA20BAA2BB12B83128711071569
:100768000230A2004530A100A930A000A00BBA2B8E
:10077800A10BBA2BA20BBA2BC12B8312071187141A
:100788000230A2004530A100A930A000A00BCA2B5E
:10079800A10BCA2BA20BCA2BD12B8312051205154C
:1007A8000230A2004530A100A930A000A00BDA2B2E
:1007B800A10BDA2BA20BDA2BE12B8312871007157A
:1007C8000230A2004530A100A930A000A00BEA2BFE
:1007D800A10BEA2BA20BEA2BF12B831207110511AF
:1007E8000800DC20A900DD20AA00DE20AB00DF2005
:0607F800AC008301E028C3
:02400E00843FED
:00000001FF
